:020000040800F2
:10000000C01B0020ED1100089B360008C11100083C
:10001000C1110008C1110008C11100080000000052
:10002000000000000000000000000000ED0E0008CD
:10003000C111000800000000990E000865220008A8
:100040009D0F00089D0F00089D0F00089D0F0008E0
:100050009D0F00089D0F00089D0F00089D0F0008D0
:100060009D0F00089D0F00089D0F00089D0F0008C0
:100070009D0F00089D0F00089D0F00089D0F0008B0
:100080009D0F00089D0F00089D0F00089D0F0008A0
:100090009D0F00089D0F00089D0F00089D0F000890
:1000A0009D0F00089D0F00089D0F00089D0F000880
:1000B0009D0F00089D0F00089D0F00089D0F000870
:1000C0009D0F00089D0F00089D0F00089D0F000860
:1000D0009D0F00089D0F00089D0F00089D0F000850
:1000E0009D0F00089D0F00089D0F00089D0F000840
:1000F0009D0F00089D0F00089D0F00089D0F000830
:100100009D0F00089D0F00089D0F00089D0F00081F
:100110009D0F00089D0F00089D0F00089D0F00080F
:100120009D0F00089D0F00089D0F00089D0F0008FF
:100130009D0F00089D0F00089D0F00089D0F0008EF
:100140009D0F00089D0F00089D0F00089D0F0008DF
:100150009D0F00089D0F00089D0F00089D0F0008CF
:100160009D0F00089D0F00089D0F00089D0F0008BF
:100170009D0F00089D0F00089D0F00089D0F0008AF
:100180009D0F00089D0F00089D0F00089D0F00089F
:040190009D0F0008B7
:1001940053B94AB9002908BF00281CBF4FF0FF31EA
:1001A4004FF0FF3000F074B9ADF1080C6DE904CEE6
:1001B40000F006F8DDF804E0DDE9022304B070473E
:1001C4002DE9F047089E0D4604468846002B4DD184
:1001D4008A42944668D9B2FA82F252B101FA02F321
:1001E400C2F1200120FA01F10CFA02FC41EA0308F1
:1001F40094404FEA1C45210CB8FBF5FE1FFA8CF71E
:1002040005FB1E8341EA03430EFB07F199420BD918
:100214001CEB03030EF1FF3080F01E81994240F283
:100224001B81AEF1020E63445B1AA4B2B3FBF5F07A
:1002340005FB103344EA034400FB07F7A7420AD93D
:100244001CEB040400F1FF3380F00881A74240F264
:10025400058164440238E41B40EA0E4000211EB1CB
:10026400D4400023C6E90043BDE8F0878B4208D997
:10027400002E00F0EE800021C6E900050846BDE826
:10028400F087B3FA83F100294AD1AB4202D3824208
:1002940000F2F980841A65EB030301209846002ECE
:1002A400E2D0C6E90048DFE702B9FFDEB2FA82F223
:1002B400002A40F09180A1EB0C054FEA1C471FFA7D
:1002C4008CFE0121B5FBF7F307FB1350250C45EA1F
:1002D40000450EFB03F0A84208D91CEB050503F109
:1002E400FF3802D2A84200F2CB8043462D1AA4B2B2
:1002F400B5FBF7F007FB105544EA05440EFB00FE7E
:10030400A64508D91CEB040400F1FF3502D2A6452A
:1003140000F2BB802846A4EB0E0440EA03409EE7AB
:10032400C1F120078B4022FA07FC4CEA030C20FAA7
:1003340007F405FA01F31C43FD404FEA1C4900FA97
:1003440001F3B5FBF9F8200C1FFA8CFE09FB1855D4
:1003540040EA054508FB0EF0A84202FA01F20BD967
:100364001CEB050508F1FF3A80F08880A84240F2B2
:100374008580A8F1020865442D1AA4B2B5FBF9F0F2
:1003840009FB105544EA054500FB0EFEAE4508D9AD
:100394001CEB050500F1FF346CD2AE456AD9023876
:1003A400654440EA0840A0FB0294A5EB0E05A54273
:1003B400C846A64656D353D05EB1B3EB080265EBEC
:1003C4000E0505FA07F722FA01F3CD401F43C6E9EB
:1003D40000750021BDE8F087C2F1200320FA03F183
:1003E4000CFA02FC25FA03F395400D434FEA1C472F
:1003F4001FFA8CFEB3FBF7F107FB11302B0C43EA19
:10040400004301FB0EF0984204FA02F408D91CEBF5
:10041400030301F1FF382FD298422DD902396344E6
:100424001B1AADB2B3FBF7F007FB103345EA0345E3
:1004340000FB0EF3AB4208D91CEB050500F1FF38B5
:1004440016D2AB4214D902386544ED1A40EA014190
:1004540038E73146304607E78646E5E61846FAE6C9
:100464004B45A9D2B9EB020864EB0C0E0138A3E7A3
:100474004046EAE7204694E74146D1E7D0467BE789
:10048400023B654432E7084609E76444023842E720
:10049400704700BF10B4836803495C680122A44616
:1004A4004FF0FF3310BC60471804002008B507481C
:1004B400074C02F0E5F820602068FFF7EBFF00210D
:1004C4004FF47A7002F068FEF6E700BFA653000806
:1004D400180800202DE9F04104460E46006804F097
:1004E4008EF80346206863B1217962790769012394
:1004F40012F0010F03FA01F53B6808D123EA050362
:1005040006E001681D48BDE8F04103F044B82B4300
:1005140085683B6042F400722B6898470546E8B949
:1005240026EAE6760A2786FB07764FF0010820685C
:10053400217903691B6808FA01F1194216D1002DCB
:1005440005F00103B8BF5B42A3B18368DB68984739
:100554003846314602F020FE0135E8E7A3682279E7
:100564000146BDE8F041064803F015B8EB4303F03B
:100574000103E9E783681B69E9E700BFAD5300089D
:10058400CC53000801486421FFF7A4BF7C4F000846
:100594000148C821FFF79EBF884F00080B6801334C
:1005A4000B60014B1B681847F0030020014B1860D7
:1005B400704700BFF003002007B50B460021024638
:1005C4000191034801A900F005F803B05DF804FBAC
:1005D400A10500082DE9F04F91B08B460290924698
:1005E4001C4600259AF8000008B928465FE3252830
:1005F4000AF1010707D0029B594698470028C0F228
:100604005683013512E2182200210AA803F071F87A
:100614009AF80130252B78D000221046964694464D
:100624001646394617F8013B2B2B00F09D8000F24B
:100634009480202B00F09B80232B00F09B802EB114
:100644009DF8306046F004068DF83060BCF1000F70
:1006540005D09DF8306046F008068DF83060BEF194
:10066400000F05D09DF8306046F010068DF830601C
:1006740028B19DF8300040F020008DF830002AB1F8
:100684009DF8302042F040028DF830209DF8302053
:1006940002F04400442803D16FF386128DF8302011
:1006A4009DF830202A2B42F080028DF830207BD137
:1006B4009DF8312042F001024B1C8DF831201A784C
:1006C4002E2A9DF831200CBF0121002161F3410243
:1006D4008DF8312074D15A782A2A6AD00133002146
:1006E4000A26184610F8012BA2F13007092F40F210
:1006F4008E809DF830200E91C2F3400040EAD17103
:1007040061F341028DF830205AE00AF102078DF8B6
:1007140033309DF83130D90740F1498154F8049BB6
:10072400B9F1000F07DA9DF8302042F004028DF889
:100734003020C9F100095A0740F1428154F8048B72
:10074400B8F1000F80F241819DF831306FF341031D
:100754008DF831304FF0FF3837E12D2B0CD0302B92
:100764007FF46DAF01225CE74FF0010C59E74FF0C5
:10077400010E56E7012054E7012652E70CFB020262
:10078400303A33461E4616F8010BA0F13007092F04
:10079400F4D9994293D09DF830100D92D20F62F3A0
:1007A40041018DF830108AE70B4600224FF00A0C05
:1007B400E8E79DF8312042F004028DF8312002333D
:1007C4001F4617F8012B6C2A41D025D8682A2BD054
:1007D4006A2A46D04C2A4CD01F4617F8012B9DF8A4
:1007E40031308DF83320782A00F2D980572A4DD839
:1007F400412A03D0453A022A00F2D1809DF83230D2
:10080400042262F302038DF8323001239EE006FBDA
:1008140001213039034664E7742A26D07A2ADBD1D1
:100824009DF8313006220DE05A78682A9DF831206F
:1008340006D1012161F3C6028DF831209F1CCCE75B
:100844001346022262F3C6038DF83130C5E75A78A5
:100854006C2A9DF8312001D10421EBE713460322D1
:10086400F0E79DF831300522ECE79DF8313007229E
:10087400E8E7BDF8303023F4F04323F0020343F4F7
:10088400804343F00203ADF83030A6E7A2F15801EB
:10089400202900F2848001A050F821F065090008A5
:1008A400A3090008A3090008A3090008A309000874
:1008B400A3090008A3090008A3090008A309000864
:1008C40001080008A30900086509000825090008B3
:1008D400010800080108000801080008A30900082D
:1008E40025090008A3090008A3090008A3090008B2
:1008F400A30900086D0900086509000889090008B2
:10090400A3090008A309000889090008A30900082D
:1009140065090008A3090008A3090008650900087F
:100924009DF83210012003F0780360F30201402B9C
:100934008DF8321002BF9DF8301041F001018DF89E
:100944003010632A31D1003B18BF01239DF83020B9
:10095400C2F340010B4363F341028DF83020D8E623
:100964009DF832100220DEE79DF8322003F0780370
:10097400A3F14000032161F3020243428DF83220C7
:100984004341E3E79DF83220032113F0780F61F32C
:1009940002028DF8322014BF01230023D6E79DF80C
:1009A400303043F001038DF830300023CEE79DF959
:1009B4003020002AB4BFDDF834904FF0FF39BAE696
:1009C4009B077FF5C7AEDDF838809DF83110002312
:1009D400CDE90D339DF8323003F00703012BC1F349
:1009E400C30138D1CB1E042B22D8DFE803F003095E
:1009F4000921210054F8043BDA17CDE90A3206E054
:100A0400073424F00704F4E80223CDE90A239DF80F
:100A1400303013F0030656D002983B4652465946EE
:100A240002F016FE0028C0F242810544BA46D9E518
:100A340054F8043B01294FEAE372CDE90A3205D1A7
:100A44009DF828300A9300230B93E0E70229DED1B6
:100A5400BDF92830D0E7022B23D1CB1E042B13D8A9
:100A6400DFE803F0030A0A12120022680A92002344
:100A7400201D0B930446CAE7E01D20F00700F0E8B0
:100A84000223CDE90A23F5E754F8043B0A9301292C
:100A94004FF000030B93D3D00229B8D1BDF828300E
:100AA400D0E7042B09D1E31D23F0070303F1080465
:100AB400D3E90023CDE90A23A9E7032B04BF54F8A3
:100AC400043B0A93A3E79DF833007828AED8622844
:100AD40022D825283FF48FAD5828A7D10DF126033D
:100AE4000093DDE90A0104AB0CAA02F06BFD824617
:100AF400B8F1000F0DF126000CDB9DF83020A0EBBF
:100B04000A036FF3861298458DF8302002D9A8EBBA
:100B140003030D9380463DE06338152886D801A26F
:100B240052F820F0A90B00080D0C0008310A000847
:100B3400310A0008310A0008310A00080D0C0008C7
:100B4400310A0008310A0008310A0008310A000895
:100B5400670C0008350C0008390C0008310A00083D
:100B6400310A0008810B0008310A0008350C00081E
:100B7400310A0008310A0008350C0008B8F1000FEA
:100B8400DDF828A00ADB4146504602F092FD0AEB4C
:100B940000080026BAF1000F0CD147E7504602F0D6
:100BA40081FDF4E70A9B8DF8103000260DF1100A40
:100BB4000DF11108A8EB0A0306B101339DF83220A8
:100BC400D00668D5023352060D9948BF0E9A0B44DD
:100BD40048BF9B18B9F1000F76DD9DF83020A9EBD2
:100BE4000309C2F38003039353076DD4500661D500
:100BF40046B1029B594630469847002857DB039B71
:100C040001351E46302356E01E070FD413F010069C
:100C140018BF2026DDE90A23002BBFF65FAF52423E
:100C240063EB4303CDE90A232D2657E72B26F1E78F
:100C3400002653E70A9840B30DF1260300930CAA4B
:100C440004AB002102F0BEFCBDF8323003F0EF0328
:100C540043F4F04343F010038246ADF832300026EB
:100C640046E70A9B07293FF6E1AEDFE801F00C04F2
:100C7400060C08080C0C1D70D8E61D80D6E6EA1791
:100C8400C3E90052D2E61D60D0E6DFF8C8A00646EC
:100C94000AF105088EE7110748BF013393E71846A8
:100CA40003935946029B98470028039B04DA11B02A
:100CB400BDE8F08F20234D444A46002AA5EB0901E4
:100CC40009F1FF39EBDC0D4636B1029B594630463B
:100CD40098470028EBDB01359DF83230D90601D462
:100CE4001A0706D5029B5946302098470028DEDBB8
:100CF40001359DF83230DB0607D59DF83300029BA1
:100D0400594698470028D2DB01350D9E2E44731BAB
:100D1400002B16DC029843465246594602F098FCD2
:100D24000028C4DB0544A944A9EB0503002B7FF785
:100D34007DAE029B5946202098470028B7DB013539
:100D4400F2E7029B5946302098470028AFDB013573
:100D5400DDE700BF315400080C4B1A6842F40072FE
:100D64001A601A6842F480621A604FF01002EFF3BE
:100D7400118382F31288BFF36F8F83F31188BFF35B
:100D84006F8F034B034A1A6000207047003C0240F7
:100D94000C0400200024F400014910220A6070476A
:100DA40010ED00E072B6404080F31188BFF36F8FFE
:100DB400BFF34F8F30BF62B6BFF36F8F704700BF72
:100DC40043B2002B08DB012200F01F0002FA00F0FE
:100DD4005B09024A42F82300704700BF00E100E0CB
:100DE40043B2002BA8BF03F1604301F10101B8BF76
:100DF400064B4FEA0111ACBF03F5614300F00F004D
:100E0400C9B2B4BF195483F80013704714ED00E05D
:100E140030BFFFF7FDBF00BF0F4A08B50F4B22F0EC
:100E24007F029A60BFF34F8FBFF36F8FD3F8882090
:100E340022F47002C3F88820EFF3148323F0040330
:100E440083F31488BFF36F8F01F08AFC02F026FA53
:100E540000F0BEF901F08EFC0000000800ED00E097
:100E6400094A0A49936809689967094958674B68A8
:100E740043F080534B60002383F31188BFF36F8FDB
:100E84009368986F704700BF0C0B00209C530008B8
:100E940000ED00E012498A684FF030001044EFF38F
:100EA400098C80E8F01F102080F31288BFF36F8F45
:100EB4000C4F4FF000668A698A603E60506F0023D1
:100EC400536780F3118804B5104600F0C1F9BDE8FA
:100ED400044002F1300090E8F01F8CF30988704759
:100EE4000C0B002004ED00E01EF0040F0CBFEFF328
:100EF4000880EFF30980816911F8021C0229FFD0F0
:100F040001B502F0C0FB01BD42F8203C009B42F851
:100F14001C3C0A49019B42F8183C029B42F8143CD1
:100F240021F001014FF0807342F8043C42F8081CA0
:100F34000023203A02654367704700BFB5350008B7
:100F4400094A0346906870B113F1160F406E05D03C
:100F5400A0F120029A4205D8834203D2814228BFDD
:100F640000207047002070470C0B002008B5094B87
:100F740098600D46144600F06BF9204685F3098805
:100F8400002163B681F31188BFF36F8F0022002321
:100F940002F00EFB0C0B002001B5EFF30580A0F16D
:100FA40010004FEAC0000449014409C99847BDE84C
:100FB4000140024908470000C44B0008C50F00085F
:100FC400044B99689869884203D003494FF08052D2
:100FD4000A6070470C0B002004ED00E038B5194B93
:100FE40014469A6A9A6A9A6A0546900719D5586B04
:100FF4009A6A120615D519B19A6A22F080029A6289
:101004009A6A9A6A9A6AD1060ED49B6A9A070BD492
:1010140000200C4A936A43F0FF0393620023237079
:1010240038BD6FF01500EBE7064B5B681B05EFD589
:101034002946FFF785FF0028EAD080F309880220BB
:10104400E7E700BF00ED00E00D4B9A6A9A6A9A6ADE
:10105400920508D59A6B9A6A120404D518B19A6A53
:1010640022F400429A62064B9A6A9A6AD20558BFE1
:101074009A6A9A6A002042F47F429A620870704722
:1010840000ED00E070B5484B5B688AB00D46C3F3D1
:101094000803002686F31188BFF36F8F02F07F41A7
:1010A400B1F17F4F11D102F00C0108290DD01107C5
:1010B40001D4054601260022033B8DF80720032BAB
:1010C4006BD8DFE803F00455595D3546F3E7364B3A
:1010D400DC6A14F0020460D1DA6A002A15DBDA6AE9
:1010E400520012D5AA6932F8021C4DF602729142DE
:1010F4000AD093F828200AB30DF1070201212846EB
:10110400FFF76CFF044600E02C689DF807309BB99C
:101114002022294602A802F0E1FA099B002E3ED0C3
:10112400C3F3080222B96FEA53236FEA43230993F6
:1011340002A9204602F0A5FA0AB070BD93F829204E
:101144002AB10DF107010120FFF77EFFDAE75A8D7E
:1011540092B2002AD9D09A6A9A6A9A6A9A6A9A6A60
:101164009A6A9A6A6FEA02426FEA12429A62CCE77A
:101174000DF107020021C2E70DF107010020E3E7AA
:10118400094B9A6A9A6A9A6A9A6A9A6A9A6A9A6AEB
:101194006FEA02426FEA12429A620024B5E723F42E
:1011A400FF7323F00103C2E700ED00E0024A536934
:1011B40043F010035361704700ED00E0EFF3088043
:1011C400EFF3098101B57246FFF75CFF01BD00BF73
:1011D400044800231021C2180133552B82F8001350
:1011E400F9D1704700E100E0102080F3118808482D
:1011F4004FF40261401880F30988EFF31480022150
:10120400084380F31488BFF36F8FFFF705FE0000D7
:10121400401D0020064B9B68834207D1EFF30583F2
:1012240023B1044A536843F08053536001F0D2BFA2
:101234000C0B002000ED00E0024B034A034801219F
:1012440000F06EB80000012000000020944F000858
:10125400426E054B203A1A60044A2021C3E9011268
:101264001846012100F066B81C08002000000B1588
:10127400F0B51F4F00268E4201DB1046F0BD4468D6
:101284009CB353B104F1FF3C14EA0C0F18D11F2C8A
:1012940016D905681CEA050F12D1202C0568D0F870
:1012A40008C0D2B20FD9B4F1004F0ED8013CB4FA41
:1012B40084F4C4F11F046400072A4CEA040406D928
:1012C4006FF01502D9E70824F6E73E24F4E725F089
:1012D4001F05154345F0100544F00104C7F8982094
:1012E400C7F89C500132C7F8A04001360C30C2E761
:1012F40000ED00E0044B0522C3F89420BFF34F8FA8
:10130400BFF36F8F704700BF00ED00E0BFF35F8F46
:10131400024B0022C3F89420704700BF00ED00E0A8
:1013240010B5034C01232278FFF7A2FF207010BDF3
:10133400480B002008B5094A00231278FFF798FFEC
:1013440010F1160F02D0064A072800DD08BDC2F8C6
:101354009800C2F8A0300130F6E700BF480B002027
:1013640000ED00E014490868082810B521D8FFF7FB
:10137400CDFF124C49680022904201F10C0105D1C5
:101384000F4B1870FFF7B6FF002010BDC4F898206B
:1013940051F80C3C23F01F03134343F01003C4F82B
:1013A4009C3051F8043C43F00103C4F8A0300132EE
:1013B400E2E74FF0FF30E8E7A04F000800ED00E05F
:1013C400480B0020014B1860704700BFF403002055
:1013D4002DE9F8430D4F04460E4615464FF001081B
:1013E40002F10409B44201DBBDE8F8837A6908FA22
:1013F40004F333EA020207D17B6155F834301BB1A0
:1014040059F83410204698470134EBE7003C01407A
:10141400044A0123116883400B431360024B18569E
:10142400FFF7CEBC003C0140645400081F2807DCD1
:10143400044901220B6802FA00F023EA0000086064
:10144400704700BF003C014003290FD8DFE801F0DA
:10145400020F1723154B0122996802FA00F021EAC2
:1014640000019960DA6822EA0000D860704701231D
:1014740003FA00F00D4B9A6802439A60F2E70123E5
:1014840003FA00F0094BDA680243DA609A6822EA48
:10149400000098607047012303FA00F0034B9A6838
:1014A40002439A60DA681043DFE700BF003C014062
:1014B400074B10B5044653F8300028B943F83410EC
:1014C40003EBC4035A6010BD6FF00F00FBE700BFCD
:1014D40028080020034B002243F8302003EBC0030C
:1014E4005A607047280800200B6884B0032B2DD85D
:1014F400DFE803F0020E1822164A4B68116B1943F9
:101504001163126B13400093009B002004B07047DA
:10151400104A4B68516B19435163526B134001934A
:10152400019BF2E70B4A4B68116C19431164126C6E
:1015340013400293029BE8E7064A4B68516C194337
:101544005164526C13400393039BDEE76FF08500F4
:10155400DCE700BF003802400B68032B20D8DFE82B
:1015640003F0020A1118104A4968136B23EA0103B5
:101574001363002070470C4A4968536B23EA010344
:101584005363F6E7084A4968136C23EA01031364BA
:10159400EFE7054A4968536C23EA01035364E8E71B
:1015A4006FF08500704700BF00380240084B09689F
:1015B4001B68062909D8DFE801F0050504050808B9
:1015C40005005B081360002070476FF085007047CA
:1015D4000C04002030B587B000234FF48052CDE9CD
:1015E4000032029300F038F803A802F0FFF8184B19
:1015F4001A68910706D41A6842F001021A601A6840
:101604009207FCD5124CA36823F00303A360A368DC
:1016140023F0F003A360A56815F00C05FBD1236843
:101624000C4823F080732360636823F0706343F0F5
:101634008063636003AA6B46294600F0BBFF2368FE
:1016440023F00103236002F0D8F8284607B030BD28
:10165400003802400024F400064B1A6C42F0805219
:101664001A641B6C82B003F080530193019B02B097
:10167400704700BF0038024008B5084B084818609E
:1016840002F0BDFF38B10748FFF79CFE0548FEF79E
:101694008DFF002008BD6FF01200FBE7E00800207A
:1016A4007C4B0008AD1600080A2838B5074D0446DF
:1016B40004D1286883680D21DB699847286883680A
:1016C400E1B2DB699847204638BD00BFE00800203E
:1016D4002DE9F04114464268D2E904838B4213D9C0
:1016E4001825084696694D4300F058FA084B1B5CD0
:1016F400434477195B689BB2636073596370BB7929
:1017040023700020BDE8F0816FF01500FAE700BFF8
:1017140094540008F8B546680546134C204602F078
:101724006EFF18B96FF004042046F8BDA368204684
:101734001B683146984704460028F3D1B36828460D
:10174400984771692346182027468B4205D12B6997
:101754000022C3E900229A60E6E7B26900FB032293
:1017640001339771F1E700BF444A00082DE9F04FB7
:1017740093B0D0F804B0019014464FF0180909FB57
:1017840001F93C220E4603A80021DBF818A0DBF87F
:10179400108001F0AEFF628802F4FE62B2F5FE6FC3
:1017A4000AEB09050BD10123AB716B71A3696B6162
:1017B40063692B610027384613B0BDE8F08FDBF86E
:1017C4001420B24202D86FF01507F4E7AA7912B1D7
:1017D4006FF00F07EFE73146404602F095F80746F1
:1017E4000028F5D1019B3146586802F0A1F822691E
:1017F4005169B1F5803FE6D2218801F4607121B9C5
:101804009BF80C30002B00F01E81E088B4F804C073
:101814006045D8D1042802D0431E012BD3D8137FAE
:10182400C3F38011B1EBD31FCDD121880123AB7158
:10183400A3696B61C1F3C21163694AF809102B6192
:10184400D2E900E301290CBFCDE9033ECDE903E36E
:101854002368C3F38333C5E902C0032BB3D8DFE89D
:1018640003F002131619002301290D9315D0022940
:1018740000F0C7800029A6D180230593137FC3F30A
:101884000111C3F381030FE04FF48033ECE74FF40D
:101894000033E9E74FF44033E6E740230593137F31
:1018A400C3F38101C3F3011301295FFA81FE00F040
:1018B400CA80BEF1020F00F0A680BEF1000F82D1F3
:1018C4004FF48061012B0891D9B200F0BC80022949
:1018D40000F09B8000297FF476AF4FF400730793E8
:1018E4005AF80910137F8A1E13F0400F14BF4FF4E7
:1018F40080730023514251410693BCF1000F9CFABE
:10190400ACF3524A2971B3FA83F308BF4FF0FF33A3
:10191400002852F82330099390FAA0F34C4AB3FA02
:1019240083F308BF4FF0FF33204652F823300A9365
:1019340000F000FA29791090204600F009FA238873
:10194400119013F46072237861D003F07F03072BA6
:101954003FF639AF207800F07F0000F025F92369C5
:101964000C90587F00F00F0002F096F90F9003A836
:1019740002F06BF9002814BF042300230E932A7984
:1019840023695B69002A4AD0A288B3FBF2F330468C
:101994000B9300F003F903AA0146404600F02AFD28
:1019A400304600F0FBF82B4D2A5C52F8083043F027
:1019B400100342F8083023691B7F5B0609D53046C3
:1019C40000F0ECF82A5C52F8083043F0080342F8BF
:1019D40008300E9B042B304623D100F0DFF82B5C3B
:1019E400434430465A6942F004025A6100F0D6F882
:1019F4002B5C9844D8F8143043F08003C8F81430B2
:101A0400D9E6002339E700215CE7002367E703F008
:101A14007F01072984BF62F3060323709AE7E288F3
:101A2400B3E700F0BBF82B5C434430465A6922F01C
:101A340004025A6100F0B2F82B5C9844D8F81430D0
:101A440023F08003DAE76FF08507B4E61C50000842
:101A54001050000894540008F8B543689F69D3E90E
:101A6400046318228B4205460C4602FB017717D902
:101A7400084600F093F80C4B1A5C935923F01003BA
:101A840093512146304600F045F92146304601F095
:101A94003BFF6868214601F04BFF0020B871F8BD98
:101AA4006FF01500FBE700BF945400082DE9F84FD0
:101AB400994643689246D3E904528A420C4613D9A4
:101AC4004FF0180B28469F690BFB01FB01F01CFF2C
:101AD40007EB0B08064600285AD157F80B30012BA8
:101AE40005D033F0020330D06FF015062AE020460B
:101AF40000F054F8DFF8A0B01BF800302B44204667
:101B0400C3F80CA000F04AF81BF800302B44C3F8CB
:101B1400089098F80430DFF88090204643B300F032
:101B24003DF819F80010D8F808300A98B0FBF3F71C
:101B340029444A68130C1B041F434F60214628465E
:101B440000F0C4F83046BDE8F88F204600F026F8CF
:101B5400DFF844B01BF800302B442046C3F808A03B
:101B640000F01CF81BF800302B44C3F80C90D0E7AD
:101B740000F014F819F80020D8F80C100A98B0FBFB
:101B8400F1F72A4453681B0C1B041F435760D5E725
:101B94006FF00F06D6E700BF94540008014B53F8CA
:101BA40020007047B0510008014B53F820007047E3
:101BB40090500008014B53F8213018479051000809
:101BC400014B53F8213018477051000808B5044BF5
:101BD40053F821309847003818BF012008BD00BFD2
:101BE4005051000808B5044B53F821309847003889
:101BF40018BF012008BD00BF30510008014B53F845
:101C04002130184710510008014B53F82130184770
:101C1400F0500008014B53F821301847D050000809
:101C240008B5044B53F821309847003818BF0120F9
:101C340008BD00BFB0500008084A10B552F8212072
:101C4400074CA25C835813F0100304D0FFF7CAFFBB
:101C540000F0010010BD1846FAE700BFB0510008BB
:101C64009C540008084A10B552F82120074CA25C85
:101C7400835813F0080304D0FFF7A8FF00F0010015
:101C840010BD1846FAE700BFB05100089C54000884
:101C94000C4B0D4A53F82130D35C034470B55B6997
:101CA4001B0605460E4602D40024204670BDFFF7ED
:101CB400B7FF04460028F7D03146284601F0B6FFA6
:101CC400F3E700BFB05100089C540008044B054AD8
:101CD40053F82130D25C835843F00103835070479A
:101CE400B05100089C540008084B094A53F82130AD
:101CF400D35CC25822F00102C250C35813F0010F42
:101D040014BF6FF00A000020704700BFB0510008F4
:101D14009C540008054B064A53F82130D35C184400
:101D2400436923F080034361704700BFB05100084A
:101D34009C54000841B14389043B0C2B9ABF034ACD
:101D440052F82300002070470389F5E72850000863
:101D540041B10389043B0C2B9ABF034A52F8230078
:101D6400002070474389F5E75C50000870B50546CC
:101D7400074C204602F043FC30B1A36829462046B4
:101D84001B68BDE8704018476FF0120070BD00BFBB
:101D9400444A0008F7B50C461146B1F5005F4768A0
:101DA40002691E4623D104F0030304339A000F236F
:101DB400934043EA9403DAB23349023251F82220C1
:101DC400190C02EA134391FAA1F2B2FA82F2D34057
:101DD400BA689A4209D12046FFF728FB2046FFF74C
:101DE40079FB00212046FFF72FFB00253EE0B1F5EB
:101DF400804F42D025492046FFF75AFB054600286C
:101E04003ED1234ABF6892E803006B4683E803008F
:101E14001846FFF7ABFFC0B904F0030104318B008F
:101E24000F21994041EA9401CAB2920002F1804222
:101E340002F59C320B0C906893FAA3F3B3FA83F384
:101E440020EA11419F400F439760B6F5802F10D0D0
:101E5400B6F5C02F0FD0B6F5003F14BF0021022104
:101E64002046FFF7F1FA2046FFF7D2FA284603B0DE
:101E7400F0BD0121F4E70321F2E76FF08505F5E7F2
:101E84006FF00F05F2E700BF003801403D3D000848
:101E9400744F000870B544680C3421B12046BDE885
:101EA4007040FFF763BF074D284602F0A8FB30B12E
:101EB400AB68214628465B68BDE8704018476FF060
:101EC400120070BD444A0008AF28F8B5174604460E
:101ED4000E464FEA101214D80B4B53F8225015B982
:101EE4006FF01200F8BD284602F089FB0028F7D0F5
:101EF40028463B46324604F00F0101F030FF002033
:101F0400F0E76FF01500EDE7945200082DE9F8436F
:101F140045680769DFF8D881A946064659F80C4B8D
:101F2400C7F80480404602F002F918B16FF00400CB
:101F3400BDE8F883D8F8083049461B6840469847FE
:101F44000028F3D17368D5E907011A6801F0CDFFC1
:101F54000028EDDBE36823F40053E36004F10C0391
:101F640053E8003F43F00C0304F10C0141E8003254
:101F7400002AF3D1AB69022B00F0A680012B0ABF23
:101F84004FF4805100214FF4C062E3680A4323F404
:101F9400B0531343E360236923F4405323612B7D3F
:101FA4002BB173681A68536943F4407353613968F9
:101FB400304602F0E6F8E36843F40053E360304649
:101FC400AB68984734697368A0691F68A6600028E5
:101FD4007FD1D4F8B030002B40F0838033690022E5
:101FE40083F8A82073681A6802F1140353E8003FC9
:101FF40023F0800302F1140141E80035002DF3D1F0
:102004003C4904F1780002F0B2FB04F144083A4977
:1020140004F5887002F0ABFB20222946404601F00B
:1020240068FB94F83D30002B94F8603014BF002214
:10203400022262F3830384F8603094F83E30226C09
:10204400002B14BF0023022302F00F021B0143EAFA
:102054000223B4F8602022F47F621343C4E90C869F
:10206400043704F1DC082022A4F86030C4E91175B7
:10207400C4E952552946404601F03BFB94F8D5305B
:10208400002B94F8F83014BF0022022262F3830379
:1020940084F8F83094F8D630D4F8D820002B14BF44
:1020A4000023022302F00F021B0143EA0223B4F8C7
:1020B400F82022F473621343C4E93757C4E9328623
:1020C400A4F8F830284633E74FF480514FF4806287
:1020D4005BE702F02CF800283FF47BAF6FF01200AE
:1020E40026E7A06902F023F800283FF477AFF5E76C
:1020F400444A000843440008174300082DE9F04708
:102104000A79436806691C68012A0D467CD0022AB4
:102114000CBF4FF48061002195F8059095F806E016
:10212400B9F1020F96BF3D4B4FF4005833F81980B4
:10213400BEF1040F6BD0002A0CBF00234FF4805370
:10214400EF79A2F1030A012F14BF4FF0000C4FF4F2
:10215400407CBAF1010F5DD912B1BEF1040F59D020
:1021640019F0FD0F56D0BEF1020F53D9BEF1040F82
:1021740050D067B12A4A944207D0A2F54C42944207
:1021840003D002F55042944244D1012F42D1E26877
:1021940022F40052E260E26802F4C06291421FBF7E
:1021A400E76827F4C0670F43E760226902F44052EE
:1021B40090451FBF216921F4405141EA0801216182
:1021C400E268296802F4805293421FBFE26822F455
:1021D40080521A43E260636903F440739C451FBF55
:1021E400636923F4407343EA0C03636133689942DF
:1021F40003D001F0C6FF2B683360E36843F4005357
:10220400E3600020BDE8F0874FF4C06184E74FF439
:10221400805395E76FF08500F4E700BFA0530008F2
:10222400001001404FF0E02310B59A6919699869CC
:10223400094B11F4803F094901D1824206D21A6840
:102244000C6822441A604FF0E02212691B680A6885
:102254001344181A10BD00BF080B0020040B002003
:1022640008B5FFF7DFFF0C4B0C4A186811680844E7
:10227400106000221A600A4A136842F2D001C01AA0
:10228400B0FBF1F001FB0033136001F0E7F8BDE8A7
:102294000840FEF795BE00BF080B0020000B00208D
:1022A400FC0A0020094B102283F82320084B42F239
:1022B400CF021A60074B002018604FF0E0235A61E8
:1022C40098611A6942F007021A61704700ED00E054
:1022D400040B0020080B0020F8B5324D59B1431C03
:1022E40009D14FF0E022136923F0010313614FF089
:1022F4007F432B60F8BD40F2CC73B0F1FF3F08BFC1
:102304001846441E002C2F6832DD9C42A8BF1C4690
:102314004FF01003EFF3118683F31288BFF36F8F2E
:10232400FFF780FF20494FF0E0230022D3F818C0C4
:102334000B6818441D4B08601A601D4B1B68C21AB9
:1023440018D54FF480632B604FF0E0222C6893691A
:102354009C4538BFBC44013CACEB030C5461604465
:1023640000249461086086F31188BFF36F8FC1E77E
:102374000024CDE742F2D00E0EFB042404F50354EE
:102384001B1A0F34B4FBFEF40EFB0434B4F5806F57
:1023940004D9084B9C42D6D82C60D5E74FF480640E
:1023A400FAE700BF040B0020000B0020080B0020FC
:1023B400FC0A0020C0D5FF0010B54FF01003EFF366
:1023C400118483F31288BFF36F8FFFF72BFF074B42
:1023D400074A1B6812689B1A034484F31188BFF3ED
:1023E4006F8F42F2D000B3FBF0F010BD000B002061
:1023F400FC0A00201F4B70B5595CD2E90236334306
:102404001669455833435669334396693343D6694D
:102414003343966A25F45F35334325F478752B43AB
:102424004350D36A441893B16569166B25F00705C8
:1024340033432B4363614358556B23F0C0732B43E1
:1024440043504358956B23F4C0032B4343505368C4
:10245400E3601368A3606368156A526A1B0C1B046B
:102464002B436360435823F06063134343500020BD
:1024740070BD00BFFC540008054B1A681B6802F0CD
:10248400007203F00063134314BF0120002070475F
:1024940000380240002834D01D4A1368136803F43E
:1024A4004043B3F5004F15D11A4B984214D81A4B38
:1024B400984294BF00230123126802F44042B2F50B
:1024C400804F0ED1134A904208D9E3B1012B38BF93
:1024D400012306E00023EFE70223EDE70E4A9042D2
:1024E400F4D80E490A6822F007021A430A600A68FF
:1024F40002F00702934208D00A6802F007029342EE
:1025040003D0012070470223EBE70020704700BF8F
:10251400007000400087930380C3C901003C02405F
:102524000B68214AC3F3031370B5D35C1F4E20FA22
:1025340003F43368A3420D4627D31D4B1A6842F0B7
:1025440080721A601A689201FCD59A68296822F090
:10255400F0020A439A609A6822F0030242F00202EF
:102564009A60134B9A6802F00C02082AFAD19A680E
:10257400696822F4E0520A439A609A68A96822F4CE
:1025840060420A439A60002004E02046FFF782FF7D
:102594000028D2D03368A34202D92046FFF77AFF3D
:1025A40000B9346070BD00BFEC5400080C04002076
:1025B40000380240F8B50E46054614461946FFF7A2
:1025C4005BFF002836D12768D4F804C0A3681A4CEE
:1025D40007F03F00B5FBF0F5CCF308004543226853
:1025E400180C01304000B5FBF0F095030FD42268BD
:1025F400012E0CBF42F4802222F48022226025683E
:1026040045F4803525600C4C22689203FCD50A4CB5
:102614000A4A65682A4042EA8C123A4342F480022C
:102624006260626822F440321A436260BDE8F84096
:10263400FFF776BF0120F8BD003802400080BFFFDD
:102644000E4B70B553F82040013053F82060A64279
:1026540000D870BDD4E900352846984765B1EB68C9
:1026640030B10028B8BF4042FF28A8BFFF2018702F
:102674005A7842F001025A700834E8E78853000897
:1026840070B5054610B90024204670BD0378002BB0
:10269400F9D00E4C0E4EB44208D10C4CB442F2D0D8
:1026A400204601F0ACFF50B91834F7E7204601F09A
:1026B400A6FF10B12368AB42E6D01834EBE72168DB
:1026C400284600F0FFFF0028EED1DDE7444A000869
:1026D400C44B000830B5002387B00122CDE90423A0
:1026E4000F22CDE9023201930C4C0D4B0D491822F7
:1026F40004EBC01402FB00334FF4B075009305FBE8
:102704000011094B4FF4A072204600F0A3F8637B3C
:1027140023F00403637307B030BD00BF70060020CC
:102724000C0B0020E01B00207B46000808B50A4B78
:10273400012202201A70FFF783FF00F003FF032039
:10274400FFF77EFF00F0E4F802F024F9034A137B5C
:1027540023F00103137308BD490B0020F006002089
:102764000248034A0021121A00F0C3BFF0040020FB
:102774004C0B002080B5DFF8BC80A6B088F3088835
:102784002D4D2E4E6B69DFF8B89043F4007300248E
:102794006B61F02385F82230EC772C766C76AC767E
:1027A40085F820406B6A43F4E0236B62FEF7FEFC7D
:1027B400FEF7F2FA4FF0FF33AB62EB62FEF7D2FDA5
:1027C400FEF73AFD40F20113ADF8243006ABB360D6
:1027D400CDE91F4401F012FF2046FFF731FF01202D
:1027E400184DFFF72DFF00F043FC174B0593012311
:1027F40016490094CDE903434FF480624B46CDE97A
:1028040001442846B56100F025F86A7B074622F0AA
:10281400040228466A7301F0F8FF2046FFF75AFFC6
:102824000B4BF3604A46394628463475C6F8048093
:10283400FEF79CFB6025002000ED00E00C0B00205F
:1028440031270008F006002004550008C0170020B6
:10285400700600202DE9FF410E9E06730426467380
:102864000D9E867300F158050F46D61DC0E9165516
:102874000C9A002526F007062037C0E90655C0E962
:1028840019768560C573C56606F1200802920B9A15
:10289400019288440A9A009242460446FEF734FBA9
:1028A400044B65659B6803B11B6F2367404604B006
:1028B400BDE8F0810C0B0020F0B587B00027059728
:1028C400109F04970F9F03970E9F0297DDE91265EF
:1028D4000D9F01970C9F00970446FFF7BBFFB5F1CE
:1028E400FF3F08BFB6F1FF3F05D055EA060305D107
:1028F400204600F0FFFA204607B0F0BD03493246F7
:102904002B4604F1180000F02FFDF4E72F480008CF
:10291400F0B5224C224D87B02646AE4204F1300475
:102924000BD300F003FA1D4C1E4F0A26AC4220D3F1
:1029340007B0BDE8F04000F07FBB54F8043C0593B9
:1029440054F8103C049354F8143C039354F8183C82
:10295400029354F81C3C019354F8203C009354E92E
:102964000C0154E90A23FFF775FF54F8303C5E6507
:10297400D2E7626A531C09D022EAE27282FB062380
:1029840052EA0301206803D100F0B4FA3034CDE7F1
:102994003946183000F0E8FCF8E700BF5C0400207A
:1029A400EC0400202F48000838B504464FF010030B
:1029B400EFF3118583F31288BFF36F8F01F081FF6A
:1029C40048B10022826701F020FF29460548BDE88E
:1029D400384000F099B9D4E902329A4218BF013361
:1029E400A360F2E74A0B00202DE9F04F474E85B073
:1029F40004464FF0FF384FF0FF394FF01003EFF368
:102A0400118783F31288BFF36F8FD4F880508DB988
:102A1400022104F1980001F03AFE002835D1002388
:102A2400CDE90089029304F188023946384800F060
:102A340023FCE2E7D4F884202B68C4F88030954264
:102A440001D1C4F88430D4F8983043F00203C4F8B8
:102A54009830EB6823F0040343F00103EB606B68E8
:102A640087F31188BFF36F8F284698474FF0100300
:102A7400EFF3118B83F31288BFF36F8FEB68990721
:102A840023F001020BD4EA600EE004F19005002269
:102A94000121284601F02DFF0028F8D1BFE7306856
:102AA40023F00303EB6070B9D4F8983023F00203E9
:102AB400C4F898308BF31188BFF36F8FD8059CD47A
:102AC40000F0E2FA99E70027D0F800A03B464268FC
:102AD400954201460CD1016897B97268316082420F
:102AE40000D1716040F8083BFFF75EFF39460023D0
:102AF400BAF1000FD8D050460F46DAF800A0E6E746
:102B040072683960904208BF7760EBE7300B0020B1
:102B14004A0B0020F8B5C3689A0704460E46C3F36F
:102B240040051FD45F071FD40A680AB982680A6087
:102B3400D80744BFA368336037684CBF022501251A
:102B44007FB31B4B9B68BB4211D101F089FD80F020
:102B54000100C0B2D7F89830D907C3F3800223D557
:102B64003AB140B96FF00F050023336013E0002041
:102B7400F0E71B07F6D400232360D7F8843063B949
:102B8400C7E92044384601F09BFDE36843F00403A1
:102B9400E3603368A3602846F8BD1C60C7F884402E
:102BA400F0E76FF01505DFE76FF01205DCE700BF13
:102BB4000C0B0020F0B589B004460020C4E92000C5
:102BC4000E9D04F18800C4E9220004F19000C4E9D8
:102BD40024001DB32879002840F2011008BF012009
:102BE400C4F8980000204FF0FF364FF0FF37CDE9CE
:102BF4000330CDE90100CDE90667094B0094204676
:102C0400FFF75AFE25B1296811B1204601F02EFDC7
:102C1400204609B0BDE8F04001F02BBD0120DFE7FC
:102C2400ED290008F7B50C46019016461D464FF0F5
:102C34001003EFF3118783F31288BFF36F8F0846F5
:102C440001F030FD55EA060309D101A92046FFF73A
:102C540061FF87F31188BFF36F8F03B0F0BDE368A2
:102C6400064943F00803E360019BA36204F11000EA
:102C740032462B4600F078FB0120EAE7354700088E
:102C840001460148FFF7CEBF7807002010B5084C75
:102C940023685BB1FFF790FB03462068054A0344B1
:102CA400BDE810401361002101F056BE10BD00BF05
:102CB400400B00200C0B002010B54FF01003EFF375
:102CC400118483F31288BFF36F8F0C4B00221A61B7
:102CD40090424FF00A030A4A00FB03F309DC136035
:102CE400084B1960FFF7D2FF84F31188BFF36F8F8D
:102CF40010BD022BB8BF0223F1E700BF0C0B00206C
:102D0400400B00203C0B002049B9EFF3058030B99B
:102D1400054B9A699B689A4201D0FEF7A1B881F3EA
:102D24001188BFF36F8F70470C0B00204FF0100316
:102D3400EFF3118183F31288BFF36F8F044B9A680A
:102D4400D37B013BD37381F31188BFF36F8F70473B
:102D54000C0B002038B502460C480D4D01F04FFD18
:102D6400044600B9EC68AB684AB95A7BD20606D16E
:102D7400A26922B9DA897F2A01D9AB6138BD9C42A4
:102D840001D0FFF783FFAC61F8E700BF280B0020F8
:102D94000C0B002070B590F90D20437B002A0146EE
:102DA40004DA03F07F03437301F001FD4B7B154A02
:102DB40063F07F034B73D2E9073402F11C05AB4285
:102DC4001BD0D3B191F90E6093F90E0086420FD057
:102DD400801B00280CDD5868C1E90030016059608F
:102DE4009068431A5842BDE870405841FFF7B2BF9B
:102DF400A34202D01B68002BE6D1C1E90054216034
:102E04001162EDE70C0B002038B501464FF01003BA
:102E1400EFF3118483F31288BFF36F8F154B164AB7
:102E240098681568A84206D1FFF730FF84F311882B
:102E3400BFF36F8F38BD00251560104A1268BAB110
:102E4400C2897F2A14D8427BD20611D10C4A90F948
:102E54000E50126895420BDB0A4A904208D01A6958
:102E64008A4202DCFFF796FFDEE7521A1A61DDE7B9
:102E74000022FBE70C0B0020380B0020400B002045
:102E84003C0B00207006002070B490F90D20437BA9
:102E9400002A2ADBDA0628D1826932BB144A63F09D
:102EA4007F034373D2E9073402F11C05AB4217D008
:102EB400B3B190F90E6093F90E108E420BD0891BBA
:102EC400002908DD5A68C0E900321060586070BCFF
:102ED4000020FFF73FBFA34202D01B68002BEAD1BA
:102EE400C0E9005420601062F1E770BC704700BF75
:102EF4000C0B002010B54FF01002EFF3118482F395
:102F04001288BFF36F8F427B510704D484F3118876
:102F1400BFF36F8F10BD22F004024273FFF7B4FFBA
:102F240021460248BDE81040FFF7EEBE4A0B0020E0
:102F340008B590F90D20437B002A014604DA03F01A
:102F44007F03437301F033FC044B9868431A5842DF
:102F54005841BDE80840FFF7FDBE00BF0C0B002040
:102F64002DE9F041064615461C464FF01003EFF3D9
:102F7400118783F31288BFF36F8F01F078FC87F316
:102F84001188BFF36F8FB4F1FF3F08BFB5F1FF3F66
:102F940008D02A46234606F118000349BDE8F0414B
:102FA40000F0E2B9BDE8F0812F48000810B5074BE6
:102FB4009868074B0C4618601146DDE90223FFF7B9
:102FC400CFFF2046BDE81040FDF74ABF0C0B0020A0
:102FD400380B002070B50446183001F0A7FC4FF000
:102FE4001003EFF3118683F31288BFF36F8F94F904
:102FF4000D20637B002A05DA03F07F036373204608
:1030040001F0D5FB0B4D637BA86843F01003637399
:10301400031B58425841FFF79DFE86F31188BFF306
:103024006F8FAB68A34203D1BDE8704001F0DDBBF4
:1030340070BD00BF0C0B002010B54FF01003EFF370
:10304400118483F31288BFF36F8F084B9A68D37B84
:103054000133D3730020FFF77DFE84F31188BFF39F
:103064006F8FBDE8104001F0C0BB00BF0C0B002007
:10307400044B002103F11C02C3E907220846FFF7B1
:103084001BBE00BF0C0B0020F8B54FF01003EFF38C
:10309400118583F31288BFF36F8F1A498868437BC5
:1030A40003F07F03437301F082FB8B685A7B08466D
:1030B40062F07F025A7350F81C2F82421CD0DAB19E
:1030C4000F6A93F90E6092F90E40A6420FD0A41B2A
:1030D400002C0CDD5168C3E900210B605360012012
:1030E400FFF738FE2846BDE8F840FDF7B9BEBA42FE
:1030F40002D01268002AE6D10A6AC3E9000213600A
:103104000B62ECE70C0B002050EA01032DE9F041BF
:1031140005460E4603D1FFF7B7FF002033E06FF0FA
:103124000104241A4FF0FF3363EB0103012C73F104
:10313400000302DA01F02AFC44194FF01003EFF304
:10314400118883F31288BFF36F8F104F104BB86848
:103154001860FFF7EDFEB8680E492A46334618306A
:1031640000F002F9BA68537B43F0100353734046EE
:10317400FDF776FE01F00AFC201A63EB0303012835
:1031840073F10003C9DBBDE8F08100BF0C0B002024
:10319400380B00202F480008B1F1FF3F08BFB0F101
:1031A400FF3F08B506D1074B9868FFF713FF4FF0B0
:1031B400FF3008BDFFF7A8FF0A220023C117FCF760
:1031C400E7FFF6E70C0B0020014B9868704700BF3F
:1031D4000C0B00202DE9F04104464FF01003EFF3EF
:1031E400118683F31288BFF36F8F437B1A0705D5CB
:1031F40086F31188BFF36F8FBDE8F08123F02002BE
:1032040042F00801D20920D14173A36813B12046CA
:1032140001F0D5FA04F1180001F088FB04F1580715
:103224004FF00008A56DBD4200D0B5B90120FFF7ED
:1032340091FD104B9B68A342DAD1EFF30583002B79
:10324400D6D13046FDF70CFED2E703F05F0343F01E
:103254000803437301F0ABFAD7E7284601F0AFFA4D
:1032640005F1180001F062FBC5F878802846FFF7E5
:103274000BFED7E70C0B0020D3B5DDE90667089CED
:10328400CDE90067FFF792FE1CB1034B9B685B69B5
:10329400236002B0D0BD00BF0C0B002008B5064867
:1032A400064A0749121A00F019FABDE80840054A0F
:1032B4000549064800F012BA00000020EC04002082
:1032C4005855000800000000585500080000002070
:1032D400034B1B680BB9FFF76FB80020704700BFA2
:1032E400440B0020114B10B51C689C4208BF0024FD
:1032F400FFF7EEFF03466CB1D4E90402C01A62EB97
:10330400E373012873F100020DDBB0F1004F73F198
:10331400000301DB6FF00040054B1B6913B19842B9
:10332400A8BF184610BD0020F6E700BF1004002017
:103334000C0B002030B5036868B10A4A5268904209
:1033440009D043B1D3E90421D0E90445121941EB72
:103354000501C3E90421426813605A600023C0E9EF
:10336400003330BD10040020B3F1FF3F08BFB2F1B9
:10337400FF3FF8B504461F46154667D081604FF0FD
:103384001003EFF3118683F31288BFF36F8F6FF08E
:103394000102531B4FF0FF3C6CEB0703002B1BDBBC
:1033A4002B4BD3E90013521A6CEB0303551B63EB4D
:1033B4000703012D73F10002BCBF01250023C0E9FE
:1033C40004532448D0E9003C834218D1C4E9000CDA
:1033D400CCF80040446026E0FFF77AFF013547F15E
:1033E40000072D1847EBE077C4E90457E9E7521AC0
:1033F40065EB07059C45C4E90425E7D01B68002B51
:10340400E4D0D3E90417D4E904258A4275EB070E06
:10341400EDDA8A1A67EB0505C3E904255A68C4E99D
:10342400003214605C60036883420BD09C4209D173
:10343400FFF758FF18B1084B1B69834202D00021E3
:10344400FEF74AFF86F31188BFF36F8FF8BD00BF04
:1034540070070020100400200C0B00202DE9F84315
:103464000546FFF7D1FC4FF01003EFF3118483F30B
:103474001288BFF36F8F244EDFF890803560244D9F
:10348400D8F8000032684045D5E9001E4FEAE277DB
:103494000BD050B1D0E9043C9A4277EB0C0916DA10
:1034A4009B1A6CEB070CC0E9043C52184EEB07075F
:1034B400C5E9002700253560FFF714FF2946FEF70C
:1034C4000BFF84F31188BFF36F8FBDE8F88359189D
:1034D4004EEBE377D31A336000220023C0E90423C0
:1034E400C5E90017FFF726FF84F31188BFF36F8F38
:1034F400836898474FF01003EFF3118483F3128825
:10350400BFF36F8FBCE700BF440B00201004002002
:103514007007002010B54FF01003EFF3118483F30C
:103524001288BFF36F8FFEF747FF054AD2E90031D7
:10353400C01841F1000184F31188BFF36F8F10BDEF
:1035440070070020024A0349034800F024B800BF72
:10355400FC53000809550008255500081FB5094B00
:10356400029302AB00240093074908488DF80C40ED
:103574004FF0FF334FF48062FFF71CFB204604B08A
:1035840010BD00BF4C5500086025002078070020BE
:103594007047002070470FB407B504A951F8040B15
:1035A4000191FDF709F803B05DF804EB04B070472E
:1035B400044608B5084611461A46A047FFF704FE1C
:1035C400FDF728FE2DE9F84F9A46D3786F2B8046F5
:1035D4000F461546A3F1410B29D024D8582B14BF0C
:1035E4000A261026DDF82890324600234046394644
:1035F400FCF7CEFD092AD4B21ED83034B045E4B26B
:1036040077F1000309F8014D01D3D14511D82B7886
:103614009B0605D5082E15D1AB7843F00803AB7093
:103624004846BDE8F88F03F0F703702BD7E7082668
:10363400D8E780460F46D7E7BBF1190F94BF37345C
:103644005734DBE7102EEBD1AB7843F01003E6E7F9
:103654002DE9F0410746884615461E461446B442F5
:10366400A4EB050002D33EB923782BB114F8010B67
:103674004146B8470028F2DABDE8F08170470020DF
:10368400704700F0D2BF0146006800F0CEBF0021B1
:103694000120FFF7F6BF08B5FDF7BAFBBDE8084007
:1036A400FDF78EBC034600201A5C02B97047013056
:1036B400FAE7034600201A5C0AB1884200D1704739
:1036C4000130F8E7431E013913F8012F11F8010FF7
:1036D400824201D1002AF7D1101A704710B5431E57
:1036E4000A44914200D110BD11F8014B03F8014F77
:1036F400F7E7C9B202440346934200D1704703F886
:10370400011BF9E74FF0FF307047002208B511465E
:103714000620FDF765FB002211460720FDF760FB3C
:10372400002211460820FDF75BFB00221146092008
:10373400FDF756FB002211460A20FDF751FB00223B
:1037440011461720FDF74CFB002211462820FDF7F7
:1037540047FB002211460120FDF742FB00221146DF
:103764002A20FDF73DFB002211460220FDF738FB1D
:10377400002211460320FDF733FB002008BD026937
:1037840017211620FDF724BE026916211520FDF726
:103794001FBE026913211220FDF71ABE026911210E
:1037A4001020FDF715BE026910210A20FDF710BE96
:1037B40002690A210520FDF70BBE026905210420D8
:1037C400FDF706BE026904210320FDF701BE02696C
:1037D40003210220FDF7FCBD026902210120FDF74F
:1037E400F7BD026901210020FDF7F2BD5423082230
:1037F400C0E900230023836070477047002208B5A6
:1038040011460B20FDF7ECFA0B20FDF7D9FA002244
:1038140011460C20FDF7E4FA0C20FDF7D1FA002242
:1038240011460D20FDF7DCFA0D20FDF7C9FA002240
:1038340011460E20FDF7D4FA0E20FDF7C1FA00223E
:1038440011460F20FDF7CCFA0F20FDF7B9FA00223C
:1038540011461020FDF7C4FA1020FDF7B1FA00223A
:1038640011461120FDF7BCFA1120FDF7A9FA002238
:103874002F201146FDF7B4FABDE808402F20FDF7CC
:103884009FBA002208B511463820FDF7A9FA38205E
:10389400FDF796FA002211463920FDF7A1FA3920E6
:1038A400FDF78EFA002211463A20FDF799FA3A20E4
:1038B400FDF786FA002211463B20FDF791FA3B20E2
:1038C400FDF77EFA002211463C20FDF789FA3C20E0
:1038D400FDF776FA002211464420FDF781FA4420D0
:1038E400FDF76EFA002211464520FDF779FA4520CE
:1038F400FDF766FA002246201146FDF771FABDE88D
:1039040008404620FDF75CBA70B505460E4641F204
:103914008A3431462846FEF7E7F940B1013C04D029
:1039240000210A20FFF738FCF3E76FF00F0070BDA9
:1039340038B505690C462846FEF742F92146284663
:10394400FEF738F921462846BDE8384000F06EB944
:10395400406838B5D0E904538B420C4607D9FFF7C9
:10396400E7FF28462146FEF7B1F9002038BD6FF085
:103974001500FBE743682DE9F0419C691F69182392
:1039840003FB014400230646A37138460D46FEF7A7
:1039940069F970B163791BB929463846FEF70AF90B
:1039A4006769002321692A463046BC46BDE8F041D8
:1039B400604729463846FEF73FF938B16379002B52
:1039C400EED129463846FEF7FBF8E9E729463846A2
:1039D400FEF75EF918B167696FF00403E2E77368F4
:1039E4002946186900F021F970682946FFF7A0FFFD
:1039F400F1E70021FFF7BEBFFFF7FBBF0121FFF78F
:103A0400B9BFFFF7FBBF0221FFF7B4BFFFF7FBBF4E
:103A14000321FFF7AFBFFFF7FBBF0421FFF7AABFE6
:103A2400FFF7FBBF0521FFF7A5BFFFF7FBBF06218B
:103A3400FFF7A0BFFFF7FBBF0721FFF79BBFFFF70F
:103A4400FBBF0068C0F3001070470068C0F380201B
:103A540070470068C0F3005070470068C0F380608E
:103A640070474068C0F3001070474068C0F380207E
:103A740070474068C0F3005070474068C0F38060EE
:103A840070470068C0F3401070470068C0F3C0205E
:103A940070470068C0F3405070470068C0F3C060CE
:103AA40070474068C0F3401070474068C0F3C020BE
:103AB40070474068C0F3405070474068C0F3C0602E
:103AC4007047006800F0010070470068C0F3801080
:103AD40070470068C0F3004070470068C0F380502E
:103AE4007047406800F0010070474068C0F38010E0
:103AF40070474068C0F3004070474068C0F380508E
:103B040070471023836070474FF48063836070476D
:103B14004FF48013836070474FF080638360704775
:103B24001023C36070474FF48063C36070474FF441
:103B34008013C36070474FF08063C36070472023D5
:103B4400836070474FF40063836070474FF4001341
:103B5400836070474FF00063836070472023C36025
:103B640070474FF40063C36070474FF40013C360A1
:103B740070474FF00063C360704708238360704749
:103B84004FF40073836070474FF4002383607047E1
:103B94004FF00073836070470823C36070474FF48D
:103BA4000073C36070474FF40023C36070474FF045
:103BB4000073C36070470423836070474FF48073BD
:103BC400836070474FF48023836070474FF08073A5
:103BD400836070470423C36070474FF48073C360ED
:103BE40070474FF48023C36070474FF08073C36005
:103BF40070470123836070474023836070474FF40C
:103C04008033836070474FF48003836070470123DF
:103C1400C36070474023C36070474FF48033C36070
:103C240070474FF48003C3607047704738B504464B
:103C34000D46FDF7E3FF29462046FDF7E5FF29463B
:103C44002046BDE83840FDF7E5BFC269B2F5005F24
:103C5400D0E90C0313D0B2F5804F18D0D2B9B3F128
:103C6400807F08D0B3F1C07F0FD0B3F5000F14BF2D
:103C740000200120704720F002000128F7E7B3F587
:103C8400000FF8D0B3F1807F04D10328EFE7B3F538
:103C9400000FF9E700207047431E022B88BF002065
:103CA400704743685B681B690B600020704743687A
:103CB4005B68586942400A4042405A61002070479C
:103CC40043685B6800209961704743685B68090436
:103CD40099610020704743685A6853694B405361A7
:103CE400002070470369986830B558B100248142B8
:103CF40012D10868DD6854B98D42986000D1D8604B
:103D0400002008606AB9002030BD2846EFE78D42E4
:103D1400206008BFDC60F3E705680446002DF4D199
:103D24003AB1D8689A680A6099600028EBD1D960E2
:103D3400EAE76FF01500E7E70B46896870B569B1EB
:103D440001255E680C6885408A682A4002D04B6869
:103D54003046984714B121462468F5E770BD4068A1
:103D6400F0B54468012067688840C2F3801627EAEA
:103D740000078E403E43666090FAA0F7B7FA87F7D3
:103D8400D4F808C04FF0030E7F000EFA07F72CEAB0
:103D9400070C90FAA0F7B7FA87F7C2F3C1167F00B1
:103DA400BE4046EA0C06A66090FAA0F6B6FA86F67D
:103DB400E76876000EFA06F627EA060790FAA0F6F8
:103DC400B6FA86F602F030057600C2F34122B2401C
:103DD4003A43202DE26015D107292BDC90FAA0F29A
:103DE400216A2AB3B2FA82F292000F2606FA02F28C
:103DF40021EA020190FAA0F2B2FA82F29200934010
:103E04000B43236290FAA0F3B3FA83F3226890FA87
:103E1400A0F05B000321B0FA80F02D0901FA03F34E
:103E2400400022EA030305FA00F018432060F0BDC5
:103E34002A46D9E7020A666A92FAA2F181B1B1FA76
:103E440081F189000F2792FAA2F2B2FA82F207FAFC
:103E540001F1920026EA010193400B436362D1E72A
:103E64002946EEE738B50D4691050446134619D5A3
:103E74009A0710D5580730D55022D9060DD542F4EB
:103E8400007219051ED4580515D50121A9402046F4
:103E9400FFF71BFF0FE01022EFE79806F1D542F47D
:103EA4008062EEE7D10513D5DA0613D413F02002AD
:103EB40018BF4FF48062204600232946FFF74FFFC6
:103EC400002038BD616801234968AB408B61F2E78B
:103ED4003022F0E74FF40072EDE76FF08500F0E771
:103EE400026901215060FDF7D5BFF8B50F46A9B1AD
:103EF4000026041D354654F8040C10F0F00FC2B22D
:103F04000ED1256845F020052946C0F30720FDF7AA
:103F1400DBFF083418B90136B742ECD10020F8BDF4
:103F2400102A08BF3025EFE783681B6903B11847DF
:103F34006FF05700704783689B68184782B0036826
:103F44000193019B43680193019B02B0704708B53C
:103F54004368186803681A0701D5FFF7EFFF036881
:103F64009B0643BF43680B7000204FF0FF3008BD31
:103F740043681B681A681206FCD55960704708B577
:103F84004368186802680368DB070368C2F3C00269
:103F940048BF42F00202990748BF42F00402D30727
:103FA40001D5FFF7CBFF910701D5FFF7C7FF5307F3
:103FB40001D5FFF7C3FFFFF7C1FF104608BDC36873
:103FC40013B1026980681847704710B586B004467B
:103FD4001422002101A8FFF78CFB02238DF8043082
:103FE400636EE26E0293236F03929B1A226F049313
:103FF400E2661BB101A92046FFF7E1FF06B010BD40
:1040040010B586B004461422002101A8FFF771FB05
:10401400032301A920468DF80430FFF7D0FF06B032
:1040240010BD10B586B004461422002101A8FFF784
:1040340060FB04238DF8043001A9636E02932046CB
:10404400FFF7BDFF06B010BD03690020C3E90312EA
:1040540070472DE9F0410469074640680668A06985
:10406400002853D094F8A850002D52D1C4E9191255
:10407400E5662567636706F10C0858E8003F23F0FE
:10408400200348E800310029F5D1636EA3648368F6
:10409400A2651B68E16904F12002984700283BD11E
:1040A400D4E90601FFF747FF0546002837D17B68AE
:1040B40039691A6802F1140353E8003F43F04003DE
:1040C40002F1140747E800300028F3D1012381F8F6
:1040D400A8303046FFF732FF58E8003F43F01003A2
:1040E40048E80032002AF7D106F1140353E8003FF0
:1040F40043F0010306F1140141E80032002AF3D130
:104104002046FFF77DFF2846BDE8F0816FF01205D9
:10411400F9E76FF00F05F6E76FF01505F3E76FF0B9
:104124000D05F0E703690020C3E95212704708B592
:1041340000F065FA00280CBF6FF01200002008BDE3
:1041440008B5002225201146FCF74AFEBDE80840C8
:104154002520FCF735BE08B5002226201146FCF7C1
:104164003FFEBDE808402620FCF72ABE08B5002221
:1041740047201146FCF734FEBDE808404720FCF711
:104184001FBE0369F7B55E68476830463C680D4654
:10419400FFF7CDFF38B9B368DB68FBB101AA07F1BB
:1041A4000C0130469847002818DBE368019823F493
:1041B40000431921E360AA00AB0FA0FB0101FBF748
:1041C400E7FF6422B0FBF2F102FB11031B0132335F
:1041D400B3FBF2F303EB01139BB2A36003B0F0BD96
:1041E40013B504466A46D0E90601FFF79DFE48B9B7
:1041F400019AA36E9B1AE26E934203D92367204669
:10420400FFF7E3FE02B010BD436870B504690546CC
:104214001868C368DE0686B01CD50368D90619D5AC
:10422400FFF78CFE636F5A1C012A08D923EAE37353
:104234000A2283FB022304F17800FEF721FD636F59
:1042440013B92869FFF7CCFF284606B0BDE87040D3
:10425400FFF795BEC3685A06F6D503685B06F3D527
:1042640000F10C0353E8003F23F0400300F10C027B
:1042740042E80036002EF3D16FF04003036031466C
:10428400142201A8FFF735FAD4F8FC300293C4F8DD
:104294000061D4F80831C4F8086101A920460393E9
:1042A400FFF78DFED0E730B50469D4F8005189B02A
:1042B40065B304F5887000F066FAD4E92C0101AA0C
:1042C400FFF732FE18B9029BED1AC4F80851D4E97D
:1042D4002C018368DB6898471422002103A8FFF7A8
:1042E40008FA012300258DF80C30D4F8FC3004932F
:1042F4002046D4F80831C4F80051C4F8085103A981
:104304000593FFF75CFE284609B030BD6FF00D0041
:10431400FAE7A0F588708068FFF7C5BFF0B50C69AF
:1043240089B00E461D4683B106238DF80C30636EAA
:1043340005930023069303A9236F8DF8105020469C
:104344000793FFF73CFE09B0F0BD04F17807384647
:1043540000F019FAA36E23672046FFF736FED4F85F
:1043640048312BB32046FFF75CFE3469D4E90601DB
:10437400D4F84831D4F84C71E566C4E95255256740
:104384008568626C6D686366A766A765A3640DB1F2
:104394000097A847D4E90601FFF7CDFD73681868B4
:1043A400FFF7CCFD204609B0BDE8F040FFF728BE7A
:1043B40001220023384609B0BDE8F040FEF760BC96
:1043C400F0B5436804691F6887B0064614220021CB
:1043D40001A8FFF78EF905238DF8043094F8A8306E
:1043E4003BB9204601A9FFF7EAFD6FF00D0007B0C5
:1043F400F0BD07F10C0353E8003F23F0100307F16D
:104404000C0242E80035002DF3D13069FFF7E8FED5
:104414002046FFF706FE336904F1780083F8A850BC
:1044240000F0B1F9D4E906018368DB6898472046B7
:10443400C4E9525501A9FFF7C2FD2846D7E7034650
:1044440050F8700C53F8082C53F8103C9A4201D1E0
:10445400FFF7B6BF0069FFF7C3BE03691B680B60B3
:1044640043681A68D36803F4C063B3F5806F29D036
:10447400A3F5C06CDCF1000343EB0C030B7113696F
:1044840003F44053B3F5805F1ED0B3F5405F1DD0F5
:10449400002B14BF032301234B71D068D368C004DD
:1044A40003F4C06314D5002B14BF032304238B71BE
:1044B400536903F44073A3F5407253425341CB71E3
:1044C400002070470223D9E70023E5E70223E3E74E
:1044D400002B0CBF03230223E9E737B50C694FF027
:1044E4001003EFF3118583F31288BFF36F8F4B68CA
:1044F4001A6802F1140353E8003F23F0800302F129
:10450400140040E800310029F3D104F5887000F06C
:104514003AF9D4E92C016A46FFF706FD28B9D4F824
:104524000031019A9B1AC4F808310023C4F8003101
:1045340085F31188BFF36F8F03B030BDF8B50469FC
:10454400064640680568D4F8B00000284AD0D4F87C
:104554000071002F49D1C4F80C316FF04003C4E955
:104564003F122B6005F10C0353E8003F43F0400376
:1045740005F10C0141E80032002AF3D1D4F8FC30F3
:10458400C4F8DC30D4F80031C4F8F0308368D4F8CF
:10459400B4101B6804F1B802984748BBD4E92C0155
:1045A400FFF7C9FC054630BBD4F80C315A1C012A6C
:1045B40008D923EAE3730A2283FB022304F58870F3
:1045C400FEF75EFB73681A6802F1140353E8003FB8
:1045D40043F0800302F1140040E800310029F3D1D4
:1045E4002846F8BD6FF01205FAE76FF00F05F7E7FC
:1045F4006FF01505F4E76FF00D05F1E7704738B17A
:10460400C3681888C0F30800A0F580735842584165
:1046140070474FF01002EFF3118382F31288BFF357
:104624006F8FFEE708B5FFF7F4FFF8B505460E46B1
:104634004FF01003EFF3118783F31288BFF36F8FEA
:10464400FEF7C2FD314604462846FFF7EBFF87F329
:104654001188BFF36F8F2046BDE8F840FCF7DABD40
:10466400EFF30580003818BF012070476FF0570042
:104674007047FEF73FBC08B54FF01002EFF311830B
:1046840082F31288BFF36F8FFCF78CFBF4E70268A8
:1046940001238B4022EA0303036022FA01F000F0B5
:1046A4000100704738B5032105460C30FFF7EFFFD2
:1046B400044618B105F1100000F038F9204638BD61
:1046C40020B100221146883000F013B97047C36846
:1046D40070B5C3F340059B07044616D486680221CF
:1046E4000C30FFF7D4FF80B1D6F880206AB1944231
:1046F4001BD12268D6F884108DB98C42C6F880206C
:1047040001D1C6F8842000232360E36813F00F006E
:104714001EBF43F00203E36003F00F0070BD8C4240
:104724002A6008BFC6F88450EDE715461268DDE735
:1047340073B504464FF01003EFF3118583F3128829
:10474400BFF36F8F0023A0F11006032104380193F7
:10475400FFF79DFF28B1A369019301A93046FEF735
:10476400D9F985F31188BFF36F8F02B070BD38B5E6
:10477400302204460D460021FEF7BBFF4FF4807340
:104784006560E36038BD38B504464FF01003EFF3BD
:10479400118583F31288BFF36F8FFFF783FF2046E1
:1047A400FFF795FF85F31188BFF36F8F38BDD0E90C
:1047B400003213605A600023C0E90033704708B523
:1047C400FFF7F5FF437B23F0020343730023836069
:1047D40008BD034620B9EFF305820AB9FCF740BBD4
:1047E40083F31188BFF36F8F70474FF01003EFF31B
:1047F400118083F31288BFF36F8FFFF7EABF03467C
:104804000068834208BF0020704710B54FF01003C2
:10481400EFF3118483F31288BFF36F8FFEF734FB39
:1048240084F31188BFF36F8F10BD10B501464FF0AC
:104834001003EFF3118483F31288BFF36F8F10F822
:104844000B3C13F0280F0DD151F8103C18380BB164
:10485400FFF7B5FF11F80B3C23F0140301F80B3CF0
:10486400FEF712FB84F31188BFF36F8F10BD38B5C8
:1048740004460D46FEF75CFB637B43F0020363735F
:1048840095B12B68A5609D4215D0A3B194F90E1083
:1048940093F90E20914208D0521A002A05DD5A6875
:1048A400C4E9003214605C6038BD6A68934202D087
:1048B4001B68002BECD16B68C4E900531C606C606E
:1048C400F2E738B54FF01003EFF3118583F3128844
:1048D400BFF36F8FFFF793FF044620B1FFF76FFF1D
:1048E400183000F023F885F31188BFF36F8F20464A
:1048F40038BD38B54FF01003EFF3118583F31288F8
:10490400BFF36F8FFFF77BFF044650B181674261AD
:10491400FFF755FF183000F009F82046FEF7B4FA07
:10492400012085F31188BFF36F8F38BD10B54FF0A8
:104934001002EFF3118482F31288BFF36F8F0368C0
:104944003BB1FEF7F7FC002084F31188BFF36F8FAF
:1049540010BD6FF01500F7E770B504460D464FF033
:104964001003EFF3118683F31288BFF36F8FFEF702
:10497400B9FC012805DDA04203DB29462046FDF7EA
:10498400ABFC86F31188BFF36F8F70BD08B5FEF7DB
:08499400C1FD08BD00BF704722
:08499C0028B8FF7F01000000B4
:1049A4005D0D0008000000008336000800000000D0
:1049B400D9150008444A0008191700085C4A000881
:1049C40019170008744A0008E53E00088C4A0008DC
:1049D400E53E0008A44A0008E53E0008BC4A000879
:1049E400E53E0008D44A0008E53E0008EC4A000809
:1049F400E53E0008044B0008E53E00081C4B000897
:104A0400E53E0008344B00080F3700084C4B000803
:104A1400111F0008644B0008111F00087C4B00089C
:104A2400111F0008944B00087D16000800000000C8
:104A3400A9220008AC4B0008613500080000000002
:104A44007B54000800000000F8030020200400202C
:104A540000000000244F000888540008F44F0008A8
:104A6400C04F000824040020F0080020164F00085E
:104A74008E540008D84F0008C04F000828040020B6
:104A8400E4080020044F0008A45400085C52000805
:104A9400705200082C040020EC0A0020FA4E000892
:104AA400AA5400084852000870520008300400203C
:104AB400DC0A0020F04E0008B0540008345200080C
:104AC4007052000834040020CC0A0020E64E00088E
:104AD400B654000820520008705200083804002020
:104AE400BC0A0020DC4E0008BC5400080C5200082C
:104AF400705200083C040020AC0A0020D24E00088A
:104B0400C2540008F8510008705200084004002004
:104B14009C0A0020C84E0008C8540008E45100084C
:104B240070520008440400208C0A0020B84E00088B
:104B3400CE540008D05100087052000848040020E8
:104B44007C0A0020AE4E0008465400080000000015
:104B5400000000001C04002028080020A64E0008C5
:104B6400D4540008385300085C5300084C04002057
:104B7400A0020020944E0008DB54000814530008DF
:104B84005C5300085004002050010020824E0008AD
:104B9400A6530008F05200085C5300085404002097
:104BA40000000020724E0008E254000800000000DB
:104BB4000000000058040020000000006C4E0008B3
:104BC40000000000933600084C4B0008A137000891
:104BD4004C4B00088D3700084C4B00088337000805
:104BE400000000009336000800000000933600081F
:104BF4004C4B0008E73700084C4B0008DD37000831
:104C04004C4B0008D33700084C4B0008C937000848
:104C14004C4B0008BF370008744A0008F7390008F5
:104C2400744A0008013A0008744A00080B3A000864
:104C3400744A0008153A0008744A00081F3A00082C
:104C4400744A0008293A0008744A0008333A0008F4
:104C540000000000933600080000000093360008AE
:104C6400000000009336000800000000933600089E
:104C740000000000933600084C4B0008B5370008CC
:104C8400000000009336000800000000933600087E
:104C9400000000009336000800000000933600086E
:104CA400000000009336000800000000933600085E
:104CB400000000009336000800000000933600084E
:104CC400000000009336000800000000933600083E
:104CD400000000009336000800000000933600082E
:104CE4000000000093360008944B00080D420008B1
:104CF4007C4B00080D4200080000000093360008B9
:104D04004C4B0008AB370008000000009336000845
:104D14004C4B000897370008000000009336000849
:104D240000000000933600080000000093360008DD
:104D34000000000093360008744A00083D3A000859
:104D440000000000933600080000000093360008BD
:104D540000000000933600080000000093360008AD
:104D6400000000009336000800000000933600089D
:104D7400000000009336000800000000933600088D
:104D84005C4A0008FD3900085C4A0008073A00083C
:104D94005C4A0008113A00085C4A00081B3A000803
:104DA4005C4A0008253A0008000000009336000819
:104DB400000000009336000800000000933600084D
:104DC400000000009336000800000000933600083D
:104DD400000000009336000800000000933600082D
:104DE4005C4A00082F3A00085C4A0008393A000877
:104DF4005C4A0008433A0008644B00080D4200086E
:104E040000000000933600080000000093360008FC
:104E140000000000933600080000000093360008EC
:104E240000000000933600080000000093360008DC
:104E340000000000933600080000000093360008CC
:104E440000000000933600080000000093360008BC
:104E540000000000933600080000000093360008AC
:084E6400000000009336000875
:104E6C0000800080FF7F010000800080FF7FFF7FBB
:104E7C00FF7FFF7FFF7F0300010000800080FF7F2A
:104E8C00FF7FFF7FFF7FFF7F02000100008000801B
:104E9C00FF7FFF7FFF7FFF7FFF7F00800080FF7F12
:104EAC00FF7F010000800080FF7FFF7F01000080FA
:104EBC000080FF7FFF7FFF7FFF7FFF7F010000806F
:104ECC000080FF7FFF7F010000800080FF7FFF7F5D
:104EDC00010000800080FF7FFF7F010000800080C8
:104EEC00FF7FFF7F010000800080FF7FFF7F0100BC
:104EFC0000800080FF7FFF7F0100008000800E009B
:104F0C00FF7FFF7FFF7FFF7FFF7F0100008000801E
:104F1C000D00FF7FFF7FFF7F008000800B000600ED
:104F2C000D000E00070008000F000900030002002E
:104F3C0004000A000500FF7FFF7FFF7FFF7FFF7FDC
:104F4C00FF7FFF7FFF7FFF7FFF7FFF7FFF7FFF7F65
:104F5C00FF7FFF7FFF7FFF7FFF7FFF7FFF7FFF7F55
:064F6C00FF7FFF7FFF7FC5
:024F7200FFFF3F
:104F740003000000004000001C4B00080600000075
:104F8400275400081C4B00080E0000001D540008A4
:104F9400000000200000000000000B0602000000DA
:104FA400A84F00080000000837540008200002073A
:104FB400000000203F5400081E000B117117000868
:104FC400B11A0008553900085D1A0008D516000802
:104FD400000000000000000000002000013800086C
:104FE400000000000060024008000000FC080020EF
:104FF40000000000000040008738000801000000A5
:105004000064024008000000BC0900200000000009
:105014000020000000400000000000000008000024
:1050240000100000000080000000000000000000EC
:10503400000000000000000100000000000000006B
:10504400000000000000000000000000000000005C
:1050540000000000000080010000200000000000AB
:1050640000000000000000000000400000000000FC
:10507400000000000000000000000000000000002C
:1050840000000000000000000000600000000000BC
:1050940000000002000000040000000600000008F8
:1050A4000000000A0000000C0000000EC73A0008CF
:1050B400CF3A0008D73A0008DF3A0008E73A000878
:1050C400EF3A0008F73A0008FF3A0008F73B0008F7
:1050D400FD3B0008033C00080B3C0008133C00089F
:1050E400193C00081F3C0008273C0008BB3B000893
:1050F400C13B0008C93B0008D13B0008D93B00086C
:10510400DF3B0008E73B0008EF3B00087F3B00085B
:10511400853B00088D3B0008953B00089D3B00083B
:10512400A33B0008AB3B0008B33B0008873A0008E8
:105134008F3A0008973A00089F3A0008A73A0008F7
:10514400AF3A0008B73A0008BF3A0008473A0008E7
:105154004F3A0008573A00085F3A0008673A0008D7
:105164006F3A0008773A00087F3A0008433B00088A
:10517400493B0008513B0008593B0008613B0008CB
:10518400673B00086F3B0008773B0008073B0008BB
:105194000D3B0008153B00081D3B0008253B00089B
:1051A4002B3B0008333B00083B3B00080000000099
:1051B40001000000020000000300000004000000E1
:1051C400050000000600000007000000FFFF0000CB
:1051D4000000024000000000000000000100000088
:1051E400FFFF000000040240010000000000000076
:1051F40002000000FFFF000000080240020000005F
:105204000000000004000000FFFF0000000C02404A
:10521400030000000000000008000000FFFF000081
:105224000010024004000000000000001000000014
:10523400FFFF000000140240050000000000000011
:1052440020000000FFFF00000018024006000000DC
:105254000000000040000000FFFF0000001C0240AE
:10526400070000000000000080000000693E000804
:10527400A73C0008B33C0008C53C0008CF3C00082C
:10528400DB3C0008991D0008E93C00080000000010
:10529400344B00081C4B0008044B0008EC4A00087F
:1052A400D44A0008BC4A0008A44A00088C4A0008F2
:1052B40000000000000000000000000007090000DA
:1052C40000020000070A00000000000007020000BE
:1052D4000002000007030000000000000826000090
:1052E4000002000008270000000000000010014038
:1052F4000000000045410008030000001000000009
:105304000000000000000000C0520008020000007D
:1053140000440040000000005B410008020000005F
:10532400000002000000000000000000D05200084D
:105334000200000000140140000000007141000858
:105344000300000020000000000000000000000036
:10535400E0520008020000004D40000841450008EA
:10536400AB4200085740000829410008C543000823
:10537400533F0008753F0008833F000801210008DF
:105384005F440008A4490008344A00083C4A000865
:10539400444A0008444A0008F5FFFFFF00100000DB
:1053A4000030554152545F31004572726F723A2099
:1053B400257320646576696365206973206E6F7454
:1053C4002072656164790A004572726F72202564E7
:1053D4003A206661696C656420746F20636F6E6641
:1053E40069677572652070696E20256420284C45B4
:1053F400442027257327290A007465747355617244
:10540400745F696400626C696E6B315F6964006229
:105414006C696E6B305F69640074657374206C65CD
:1054240064310074657374206C65643000286E699F
:105434006C2900464C4153485F30005352414D5F44
:105444003000696E746572727570742D636F6E745A
:10545400726F6C6C657240343030313363303000BD
:10546400060708090A1717171717282828282828AD
:1054740001FF2AFFFF02037263634034303032338A
:1054840038303000444D415F3200444D415F3100BB
:10549400102840587088A0B8102840587088A0B8C8
:1054A4004750494F48004750494F47004750494FDC
:1054B40046004750494F45004750494F4400475024
:1054C400494F43004750494F42004750494F41001C
:1054D400554152545F3600554152545F320073793E
:1054E400735F636C6F636B000000000000000000DA
:1054F4000102030406070809102840587088A0B860
:105504006D61696E0076322E372E302D7263322D26
:1055140035332D67353630313830353639353563E6
:10552400002A2A2A20426F6F74696E67205A6570B8
:10553400687972204F53206275696C64202573204A
:105544002573202A2A2A0A00737973776F726B7184
:045554000000000053
:1055580000093D00000000000000000000000000FD
:105568000000000000000000000000000000000033
:105578000000000000000000000000000000000023
:105588000000000000000000000000000000000013
:105598000000000000000000000000000000000003
:1055A80000000000000000000000000000000000F3
:1055B80000000000000000000000000000000000E3
:1055C80000000000000000000000000000000000D3
:1055D80000000000000000000000000000000000C3
:1055E80000000000000000000000000000000000B3
:1055F80000000000000000000000000000000000A3
:105608000000000000000000000000000000000092
:105618000000000000000000000000000000000082
:105628000000000000000000000000000000000072
:105638000000000000000000000000000000000062
:105648000000000000000000000000000000000052
:105658000000000000000000000000000000000042
:105668000000000000000000000000000000000032
:105678000000000000000000000000000000000022
:105688000000000000000000000000000000000012
:105698000000000000000000000000000000000002
:1056A80000C201000000000000000000000000002F
:1056B8000000000000000000744A00080600000016
:1056C80085800000010001000100010001000000C8
:1056D8000000000000000000214300080000010055
:1056E80003000000000000000000000000000000AF
:1056F80000000000000000000000000000000000A2
:105708000000000000000000000000000000000091
:105718000000000000000000000000000000000081
:105728000000000000000000000000000000000071
:105738000000000000000000000000000000000061
:105748000000000000000000000000000000000051
:10575800744A00080500000085800000010001006F
:10576800010001000100000000000000000000002E
:10577800DF440008000100000300000000000000F2
:105788000000000000000000000000000000000011
:105798000000000000000000000000000000000001
:1057A80000000000000000000000000000000000F1
:1057B80000000000000000000000000000000000E1
:1057C80000000000000000000000000000000000D1
:1057D80000000000000000000000000000000000C1
:1057E80000000000000000000000000000000000B1
:1057F80000C20100000000000000000000000000DE
:1058080000000000000000005C4A000806000000DC
:105818008580000001000100010001000100000076
:105828000000000000000000214300080000010003
:10583800030000000000000000000000000000005D
:105848000000000000000000000000000000000050
:105858000000000000000000000000000000000040
:105868000000000000000000000000000000000030
:105878000000000000000000000000000000000020
:105888000000000000000000000000000000000010
:105898000000000000000000000000000000000000
:1058A8005C4A00080100000085800000010001003A
:1058B80001000100010000000000000000000000DD
:1058C800DF440008000100000300000000000000A1
:1058D80000000000000000000000000000000000C0
:1058E80000000000000000000000000000000000B0
:1058F80000000000000000000000000000000000A0
:10590800000000000000000000000000000000008F
:10591800000000000000000000000000000000007F
:10592800000000000000000000000000000000006F
:10593800000000000000000000000000000000005F
:105948009735000809370008ED1400085D150008B0
:1059580000000000B1150008000000000024F40059
:09596800100400201004002015B9
:03597100FFFFFF36
:105974000000000000000000000000000000000023
:105984000000000000000000000000000000000013
:105994000000000000000000000000000000000003
:1059A40000000000000000000000000000000000F3
:1059B400F0040020600B00200004000089050008AA
:1059C40000000000000000000000000007000000CC
:1059D4000000000000000000000000001354000854
:1059E40070050020800F00200004000095050008C9
:1059F400000000000000000000000000070000009C
:105A0400000000000000000000000000095400082D
:105A1400F0050020A013002000040000B1040008D9
:105A2400000000000000000000000000070000006B
:105A3400000000000000000000000000FD5300080A
:04000005080011EDF1
:00000001FF
